:100000000C9430010C947B0A0C94540A0C94580103
:100010000C9458010C9458010C948E060C945801C1
:100020000C9458010C9458010C9458010C945801EC
:100030000C9458010C9458010C9458010C945801DC
:100040000C94FE090C9458010C94F30A0C94CD0AFC
:100050000C9458010C9458010C9458010C945801BC
:100060000C9458010C945801D4109C10D410D41046
:10007000A810BA10CA1020000000000024002700B9
:100080002A0000000000250028002B0000000000CE
:1000900023002600290004040404040404040202CA
:1000A00002020202030303030303010204081020F7
:1000B0004080010204081020010204081020000002
:1000C0000008000201000003040700000000000017
:1000D00000004E4D3A494E49543A4C49422056454B
:1000E000523D322E332E302043503D524E4E4E4123
:1000F0002D2D2D200A004E4D3A494E49543A494E75
:100100004F3D4D7952656C6169732076312E310A0D
:10011000004E4D3A494E49543A5645523D312E38DB
:100120000A004E4D3A4246523A494E49540A004E50
:100130004D3A494E49543A52425420703D25640A82
:10014000004E4D3A4246523A494E5420703D256485
:10015000206D3D25640A004E4D3A4246523A494EC2
:100160005420703D2564206D3D25640A004E4D3AB3
:100170005354503A485720563D256420463D256447
:10018000204D3D25640A004E4D3A5354503A49449F
:100190003D2564204D3D25640A004E4D3A505245A0
:1001A000533A25732825642920703D256420743D29
:1001B00025640A004E4D3A4246523A4F4B0A004ED1
:1001C0004D3A534C503A4157414B450A004E4D3A37
:1001D000534C503A534C45455020733D25640A0A10
:1001E000004E4D3A4C4F4F503A494E5420703D25E9
:1001F0006420763D25640A004E4D3A4C4F4F503AEC
:100200002573282564293A53455420743D256420DC
:10021000763D25642E253034640A004E4D3A4C4F0D
:100220004F503A2573282564293A53455420743D8C
:10023000256420763D25642E253032640A004E4D1B
:100240003A4C4F4F503A2573282564293A53455468
:1002500020743D256420763D25640A00A517BF194A
:1002600011241FBECFEFD8E0DEBFCDBF11E0A0E06C
:10027000B1E0E6E9F5E402C005900D92A43AB107B9
:10028000D9F723E0A4EAB1E001C01D92AE37B2076E
:10029000E1F711E0CFE2D1E004C02197FE010E9416
:1002A0008A21CE32D107C9F70E946E1A0C94BE2261
:1002B0000C94000080916F03846080936F038091A1
:1002C0007003807880937003E0917403F09175035C
:1002D000309709F0099408950F931F93CF93DF93FC
:1002E0008C01FC0186810E943A08EC01009771F0B4
:1002F000B8010E945A15EEA1FFA1309739F0B8015C
:10030000CE01DF91CF911F910F910994DF91CF9191
:100310001F910F910895EFE6F3E08081877F8F7E34
:10032000808310926B0310926C0310926D031092F5
:100330006E0344E050E060E070E087EA91E00C94E6
:10034000BD2083B78E7F83BF809101010E94A20AE6
:10035000809120018F3F21F4809101018093200141
:10036000089583B78E7F83BF809100010E94A20A07
:10037000809120018F3F21F4809100018093200122
:100380000895FC01838187708860838384818F71E5
:10039000806284836783CF0108950F931F93CF9367
:1003A000DF93EC016115710561F0FB010190002004
:1003B000E9F73197E61BF70BE931F10518F0E9E1B0
:1003C00001C0E0E00E2F10E08B81282F2770C801BC
:1003D00033E0880F991F3A95E1F7822B8B838C814C
:1003E0008F718C83EE2329F0A801CE0107960E941D
:1003F000AF22FE01E00FF11F1782CE01DF91CF91F6
:100400001F910F910895CF93DF93FC011082118209
:100410001282148215821682DC0117968AE1ED01A0
:1004200019928A95E9F782E08383DF91CF9108954D
:1004300080916F0384FD0C9479110895E091650318
:10044000F0916603309721F00280F381E02D09944A
:1004500008950F931F930E94BA09009167031091AA
:1004600068032091690330916A03601B710B820B52
:10047000930B1F910F9108959C01809165039091BA
:1004800066038217930751F090916F039F719093C9
:100490006F03309366032093650305C080916F035B
:1004A000805E80936F03E0916503F091660330975F
:1004B00021F00190F081E02D09950E94BA09609326
:1004C0006703709368038093690390936A030895A8
:1004D0000F931F930E9429022091700320772037E9
:1004E00029F000E117E220E030E004C000E61AEE57
:1004F00020E030E0061717072807390730F481E2BB
:1005000091E01F910F910C943C021F910F9108955F
:10051000809170038F70863020F088E191E00C9418
:100520003C020895809171038F3FA1F00E94BA09A7
:1005300060936B0370936C0380936D0390936E03D1
:10054000809171039091A90189138093A90184E19D
:1005500091E013C00E942902613D77408105910519
:1005600070F080916F03803618F480E191E005C04F
:10057000877F80936F0388E191E00C943C0208959B
:100580008091A7018F3F19F080E191E010C00E9497
:100590002902613D77408105910558F080916F03F4
:1005A000803618F48CE091E002C088E091E00C9471
:1005B0003C0208950E942902613D77408105910522
:1005C00020F480916F0381FF08958091A8018F3FEF
:1005D00041F080916F038E7F80936F038CE091E0F8
:1005E00009C080916F03803618F488E191E002C061
:1005F00088E091E00C943C0290E59CBD1DBC2A98DB
:10060000E0E1F0E03197F1F78EBD00000DB407FE98
:10061000FDCF8EB5FB019FEF4150C8F0222361F062
:100620009EBD00000DB407FEFDCF8EB561157105AE
:1006300099F380833196F0CFDF01119680818EBDD2
:1006400000000DB407FEFDCF8EB5FD01E5CF2A9A5F
:10065000E0E1F0E03197F1F70895CF93DF931F9237
:10066000CDB7DEB7698320E041E0BE016F5F7F4F09
:100670000E94FC020F90DF91CF91089529986CE0C1
:1006800080E20C942D0380917003982F907790371F
:1006900059F0982F92959F709F5F97709295907FD9
:1006A0008F78892B8093700380916F038B7F8F7E6F
:1006B00080936F030C943E036FE080E20E942D0351
:1006C000609107016F3F19F08AE20E942D03299A79
:1006D000089521E041E060E070E00C94FC0220E02D
:1006E00040E060E070E00C94FC02EF92FF921F93F8
:1006F000CF93DF93FC01828190916F0390FF04C040
:100700008F3F09F052C005C08F3F19F01091A8012A
:1007100001C01FEF8091A7018083438142FD06C085
:10072000469546954695D7E0D40F01C0D0E27F01AB
:10073000C091AA01C170299880E091E00197F1F77A
:100740006EE080E20E942D0384EC90E00197F1F7C7
:10075000612F8AE20E942D03612F80E30E942D0306
:1007600081EE0E946F031F3F11F0CC2311F080EB4C
:1007700001C080EA4D2FD13208F040E220E0B701FD
:100780000E94FC02299A80E190E00197F1F72998F4
:10079000E12CF12C8FEF0E946F03D82F807339F476
:1007A00081E0E81AF108B1F702C080E023C060E3FD
:1007B00087E20E942D03D4FF03C081EE0E946F03E5
:1007C0000E945C03D5FDC1E081E01F3F09F080E09D
:1007D0008C2B9091A80119130DC090917003811179
:1007E00006C021E0290F2F70907F922B01C0907FCF
:1007F00090937003DF91CF911F91FF90EF90089538
:1008000020916F0322FD0C94750380E008950F93EF
:100810008FEF80937103EFE6F3E08081886080833F
:1008200000E028E143E06FEF80E00E94F90761E01B
:100830000E94C1010F910C9475030F938091A70141
:100840008F3F71F400E023E043E06FEF80E00E940F
:10085000F90766E971E00E94CD010F910C947503D0
:100860000F9108950F93EFE6F3E08081897F816017
:100870008083E7EAF1E08FEF8283818300E027E065
:1008800043E06FEF0E94F90766E971E00E94CD0135
:100890000F910C947503CF93DF93219A229A299894
:1008A0002A9ACFB7F8948091A401811127C0E0EA79
:1008B000F0E08491E4EBF0E09491E82FF0E0EE0FAB
:1008C000FF1FE858FF4FA591B491EC91E92321F463
:1008D00061E08AE00E94150961E08AE00E94440913
:1008E0008CB580618CBD8CB580648CBD61E08DE081
:1008F0000E94440961E08BE00E9444098091A401B8
:100900008F5F8093A401CFBF6EE080E20E942D0331
:1009100065E070E080E090E00E94800963E083E29F
:100920000E942D036FE584E20E942D036CE485E2B2
:100930000E942D0365E286E20E942D0363E780E5B5
:100940000E942D0364E08DE30E942D0386E00E9447
:100950006903853209F066C085E00E9469038C3422
:1009600009F060C062E082E20E942D0360E081E253
:100970000E942D0363E08CE30E942D03DFEFD093F0
:10098000020120E045E062E071E08BE20E94FC029F
:1009900020E045E062E071E08AE20E94FC0220E093
:1009A00045E062E071E080E30E94FC0282EE0E947A
:1009B0006F0381EE0E946F0360E787E20E942D03C0
:1009C00080916F03806180936F038091AA018E7F75
:1009D0008093AA018CE08093A7016CE080E090E016
:1009E0000E94DD20C091A701CF3FC9F08FEF8C0F8F
:1009F0008E3F90F4C093070163E082E20E942D03D2
:100A000061E081E20E942D030E945C036C2F80E074
:100A100090E00E94DD2003C0D093A70103C088E1CD
:100A200091E002C088E091E0DF91CF910C943C020C
:100A3000CF92DF92EF92FF920F931F93CF93DF93AA
:100A4000CDB7DEB7C857D1090FB6F894DEBF0FBED9
:100A5000CDBF0E94BA099B01AC0119A28E010F5DA6
:100A60001F4F8AE0C82ED12CE12CF12CCA01B9010C
:100A7000A70196010E946821605DF80162938F01D1
:100A8000211531054105510589F7309761F0019035
:100A90000020E9F73197AF01401B510BB8018BEAF9
:100AA00091E00E94E70606E710E0F8016491611109
:100AB00032C09E012B573F4FCD57DF4F48815981A0
:100AC000C358D04068E770E08E010F5F1F4FC80128
:100AD0000E94E11CF80101900020E9F73197AF0175
:100AE000401B510BB8018BEA91E00E94E7068BEAAC
:100AF00091E00E94CB07C858DF4F0FB6F894DEBFD5
:100B00000FBECDBFDF91CF911F910F91FF90EF905E
:100B1000DF90CF9008958BEA91E00E947E070F5FEF
:100B20001F4F892B09F0C1CFC4CFCF93C82F8BEAB9
:100B300091E00E94CB0780917A008F7780937A00B2
:100B400090916000CF3FB1F0C3FD02C088E001C0CA
:100B500088E2C770C82B88E10FB6F894A8958093F7
:100B600060000FBEC093600080916000806580933C
:100B700060000BC00FB6F894A89580916000886162
:100B800080936000109260000FBE83B7817F846005
:100B900083BFF89483B7816083BF85B7806685BFC4
:100BA0008F7D85BF7894889583B78E7F83BFF894B7
:100BB000A8958091600088618093600090936000A8
:100BC000789480917A00806880937A00CF9108951C
:100BD0008F929F92AF92BF92CF92DF92EF92FF924D
:100BE000CF93DF936B017C012FE0C20ED11CE11C7F
:100BF000F11CC1E0D0E0809120018F3FF9F480E149
:100C0000C816D104E104F104C8F089E094E0980F1B
:100C10004E0102C0880C991C9A95E2F7A12CB12CC8
:100C2000C814D904EA04FB0438F00E949505C818DA
:100C3000D908EA08FB08DFCF8150E8CFDF91CF91D8
:100C4000FF90EF90DF90CF90BF90AF909F908F90EC
:100C500008958F929F92AF92BF92DF92EF92FF9290
:100C60000F931F93CF93DF93D82FC42FD22E47011A
:100C70005801F89480930101409300018F3F79F06F
:100C800081E090E00D2E01C0880F0A94EAF78CBB3A
:100C9000462F50E061EA71E08D2F0E94B40ACF3FE9
:100CA00079F081E090E00C2E01C0880F0A94EAF7F9
:100CB0008CBB4D2D50E061EB71E08C2F0E94B40A8B
:100CC00081149104A104B10429F0C501B4010E946A
:100CD000E80503C08FEF0E949505DF3F19F08D2FC7
:100CE0000E94A20ACF3F19F08C2F0E94A20A809185
:100CF00020018F3F19F08091200101C08FEF9FEFFD
:100D000090932001DF91CF911F910F91FF90EF9071
:100D1000DF90BF90AF909F908F9008951F920F9299
:100D20000FB60F9211240F900FBE0F901F901895C1
:100D3000833081F028F4813099F08230A1F0089559
:100D40008730A9F08830B9F08430D1F480918000E8
:100D50008F7D03C0809180008F77809380000895FD
:100D600084B58F7702C084B58F7D84BD089580914E
:100D7000B0008F7703C08091B0008F7D8093B0006A
:100D800008953FB7F8948091600390916103A0911A
:100D90006203B091630326B5A89B05C02F3F19F0ED
:100DA0000196A11DB11D3FBFBA2FA92F982F8827EB
:100DB000820F911DA11DB11DBC01CD0143E0660F45
:100DC000771F881F991F4A95D1F708950895CF92EC
:100DD000DF92EF92FF920F931F93CF93DF936C01FB
:100DE0007A018B01C0E0D0E0CE15DF0581F0D8019B
:100DF0006D918D01D601ED91FC910190F081E02D76
:100E0000C6010995892B11F02196EECF7E01C7010D
:100E1000DF91CF911F910F91FF90EF90DF90CF90D6
:100E20000895089580E090E00895FC01538D448D6D
:100E3000252F30E0842F90E0821B930B541710F085
:100E4000CF96089501970895FC01918D828D981792
:100E500061F0828DDF01A80FB11D5D968C91928D9E
:100E60009F5F9F73928F90E008958FEF9FEF08959B
:100E7000FC01918D828D981731F0828DE80FF11D64
:100E8000858D90E008958FEF9FEF0895FC01918D7F
:100E9000228D892F90E0805C9F4F821B91098F7378
:100EA000992708958BEA91E00E94460721E0892B5B
:100EB00009F420E0822F0895FC01848DDF01A80F42
:100EC000B11DA35ABF4F2C91848D90E001968F7372
:100ED0009927848FA689B7892C93A089B1898C9191
:100EE000837080648C93938D848D981306C00288E0
:100EF000F389E02D80818F7D80830895EF92FF92AA
:100F00000F931F93CF93DF93EC0181E0888F9B8D2C
:100F10008C8D981305C0E889F989808185FD26C0EC
:100F2000F62E0B8D10E00F5F1F4F0F731127E02E71
:100F30008C8DE8120CC00FB607FCFACFE889F9894E
:100F4000808185FFF5CFCE010E945C07F1CF8B8DAC
:100F5000FE01E80FF11DE35AFF4FF0829FB7F894AE
:100F60000B8FEA89FB89808180620AC09FB7F89461
:100F7000EE89FF896083E889F989808183708064C4
:100F800080839FBF81E090E0DF91CF911F910F910F
:100F9000FF90EF900895CF93DF93EC01888D882325
:100FA000C9F0EA89FB89808185FD05C0A889B989D6
:100FB0008C9186FD0FC00FB607FCF5CF808185FFB1
:100FC000F2CFA889B9898C9185FFEDCFCE010E941F
:100FD0005C07E7CFDF91CF91089580E090E0892B07
:100FE00029F00E94520781110C94000008950E947C
:100FF000AA220F931F93E9E1F3E09091A701918357
:1010000082836683258384814770807F482B88E0B4
:10101000089F80011124042B0F7E0483CF011F91B0
:101020000F910895EBEAF1E0A089B18982E08C93F9
:10103000A485B5851C92A685B78588E08C93108E13
:10104000A489B58986E08C93A289B3898C9180614B
:101050008C93A289B3898C9188608C93A289B3897F
:101060008C9180688C930288F389E02D80818F7D3C
:1010700080830895DF92EF92FF920F931F93CF9397
:10108000DF93D82EC091CF02D091D0020091D1022F
:101090001091D202000F111F0C0F1D1F0C171D07FE
:1010A00051F0E990F9906D2DC7010E94F716892B38
:1010B000A9F3C70102C080E090E0DF91CF911F91BA
:1010C0000F91FF90EF90DF900895CF93C1E08C2FA8
:1010D0000E943A08009749F06C2F0E94F716892B5E
:1010E00021F0CF5FCF3F99F7CEEF8C2FCF910895AE
:1010F000DC0112962D913C9113971216130614F4ED
:1011000020E030E0220F331FDC01ED91FC91E20F73
:10111000F31F808191810895609102037091030310
:101120006115710521F080E090E00C94C90D0895DF
:10113000CF93DF938093E1026093E002C0E0D0E0C0
:101140008091DA0290E0C817D907F4F49091D9029F
:101150008091A7018093DC028091DF02807F282F9D
:10116000216038E0939FC0011124822B8093DF021D
:101170008091A60180FF04C08BED92E00E940004E4
:101180000E948C082196DCCFDF91CF910895CF92F9
:10119000EF920F932091D7023091D8022130310580
:1011A00021F420910003211105C00F91EF90CF9001
:1011B0000C94C90D693C710581059105B0F3CC24EF
:1011C000CA94EE24EA940FEF2FEF40E00E94F30D53
:1011D0000F91EF90CF900895CF93DF93282F30E0B9
:1011E000F901E254FF4F8491F901E655FF4FD49184
:1011F000F901EA56FF4FC491CC2391F081110E946E
:101200009806EC2FF0E0EE0FFF1FE457FF4FA5917B
:10121000B491EC91ED2381E090E021F480E002C0F4
:1012200080E090E0DF91CF9108951F93CF93DF93FB
:10123000282F30E0F901E254FF4F8491F901E6557F
:10124000FF4FD491F901EA56FF4FC491CC23C1F06E
:10125000162F81110E949806EC2FF0E0EE0FFF1F71
:10126000EE57FF4FA591B4919FB7F894111104C0A8
:101270008C91D095D82302C0EC91DE2BDC939FBFDC
:10128000DF91CF911F910895CF93DF9390E0FC0100
:10129000E655FF4F2491FC01EA56FF4F84918823C5
:1012A00061F190E0880F991FFC01E858FF4FC5914C
:1012B000D491FC01EE57FF4FA591B491611109C083
:1012C0009FB7F8948881209582238883EC912E2300
:1012D0000BC0623061F49FB7F8948881322F30954B
:1012E00083238883EC912E2B2C939FBF06C08FB74E
:1012F000F894E8812E2B28838FBFDF91CF9108953A
:101300008F929F92AF92BF92CF92DF92EF92FF9215
:101310006B017C010E94C1064B015C01C114D10428
:10132000E104F104F1F00E94C106DC01CB0188194F
:101330009909AA09BB09883E9340A105B10570F33C
:1013400021E0C21AD108E108F10888EE880E83E096
:10135000981EA11CB11CC114D104E104F10419F7B9
:10136000DDCFFF90EF90DF90CF90BF90AF909F9038
:101370008F9008952FB7F89460915C0370915D038E
:1013800080915E0390915F032FBF0895CF92DF920B
:10139000EF92FF92CF93DF93D82F0E94BA096B018F
:1013A0007C0181E0D11180E080933F03C0E00E9486
:1013B000BA09DC01CB018C199D09AE09BF09803D3A
:1013C0009740A105B10590F4C11110C0A8950E94E5
:1013D0001E020E94180280913E038770833039F705
:1013E000C1E080913F038D13E1CFE1CF8C2FDF91DE
:1013F000CF91FF90EF90DF90CF9008951F920F92C2
:101400000FB60F9211242F933F938F939F93AF9317
:10141000BF9380915C0390915D03A0915E03B091B6
:101420005F0330915B0326E0230F2D3720F40296F3
:10143000A11DB11D05C029E8230F0396A11DB11DF3
:1014400020935B0380935C0390935D03A0935E0302
:10145000B0935F038091600390916103A091620358
:10146000B09163030196A11DB11D80936003909319
:101470006103A0936203B0936303BF91AF919F9107
:101480008F913F912F910F900FBE0F901F90189545
:10149000E9E6F0E02081237F880F991F880F991FCC
:1014A000822B8083E99A08951F920F920FB60F92B4
:1014B00011242F933F934F935F936F937F938F9359
:1014C0009F93AF93BF93EF93FF93E0911E01F09131
:1014D0001F010995FF91EF91BF91AF919F918F915E
:1014E0007F916F915F914F913F912F910F900FBE20
:1014F0000F901F9018951F920F920FB60F92112404
:101500002F933F934F935F936F937F938F939F930B
:10151000AF93BF93EF93FF93E0911C01F0911D01F6
:101520000995FF91EF91BF91AF919F918F917F911D
:101530006F915F914F913F912F910F900FBE0F9040
:101540001F901895823078F4813011F0E89801C02E
:10155000E998E82FF0E0EE0FFF1FE45EFE4F86EE05
:1015600096E0918380830895952F8230A8F4E82F28
:10157000F0E0EE0FFF1FE45EFE4F71836083813069
:1015800041F0809169008C7F482B40936900E89A74
:101590000895842F0C94480A08951F920F920FB655
:1015A0000F9211242F933F934F935F936F937F93E9
:1015B0008F939F93AF93BF93EF93FF938BEA91E049
:1015C0000E945C07FF91EF91BF91AF919F918F9126
:1015D0007F916F915F914F913F912F910F900FBE2F
:1015E0000F901F9018951F920F920FB60F92112413
:1015F0002F938F939F93EF93FF93E091BB01F09113
:10160000BC018081E091C101F091C20182FD12C054
:1016100090818091C4018F5F8F732091C5018217E3
:1016200051F0E091C401F0E0E555FE4F958F8093B5
:10163000C40101C08081FF91EF919F918F912F9103
:101640000F900FBE0F901F9018950F93CF93DF93BD
:101650008F3F11F0EA0102C0C1E9D1E0022F262F2D
:1016600040E0682F80E00E94F907BE010E94CD0192
:10167000DF91CF910F910C940004AF92BF92CF9263
:10168000DF92EF92FF920F931F93CF93DF9384EB40
:1016900091E09F938F930E9418050E948C0800E0B0
:1016A0002BE043E06FEF80E00E94F90767E971E00B
:1016B0000E94CD010E9400042CE043E06FEF80E027
:1016C0000E94F90760EA71E00E94CD010E940004C7
:1016D0000E948C080091CF021091D0020F900F90C1
:1016E0004AE9A42E41E0B42E8091D1029091D20219
:1016F000880F991F2091CF023091D002820F931F43
:1017000008171907E1F1F801C190D1908F01F60196
:10171000E280F380F60184819581880F991F2281F0
:101720003381820F931FE816F90631F1F701C19159
:10173000D1917F018E811F928F938D811F928F9304
:101740008C811F928F9388858F938F818F93BF9207
:10175000AF920E9418054F8158852091D9026D8162
:101760008C810E94250B8DB79EB70A960FB6F89410
:101770009EBF0FBE8DBFCECF0E948C08B5CF0E94FA
:101780008C080E948C08DF91CF911F910F91FF90E0
:10179000EF90DF90CF90BF90AF900C948C08CF93D8
:1017A000DF93E8E4F2E089ED93E195A384A381E07F
:1017B000848F82E0878B88EE93E0A0E0B0E0809396
:1017C000760390937703A0937803B0937903CFECDB
:1017D000D2E088E592E0A0E0B0E08DAB9EABAFAB8D
:1017E000B8AF89AD1F928F938FE291E09F938F9353
:1017F0000E94180561E089AD0E94440961E089AD4D
:101800000E94150982E291E09F938F930E94180530
:101810000F900F900F900F900F900F90DF91CF913E
:101820000895CF92DF92EF92FF920F931F93CF9381
:10183000DF9300D0CDB7DEB762E083E00E944409B9
:101840008091D502882321F08091A5018093D60252
:101850008091D6021F928F938091A7011F928F9340
:1018600087E891E09F938F930E941805E090CF0244
:10187000F090D0020F900F900F900F900F900F905C
:10188000CC24C394D12C8091D1029091D202880FA4
:10189000991F2091CF023091D002820F931FE8163A
:1018A000F90609F466C0D7010D911D917D01D8019B
:1018B0005296ED91FC91539780819181892B71F41F
:1018C000D182C0828091040390910503A091060308
:1018D000B091070382839383A483B583D801549680
:1018E0002D913C915597D9018D919C911197892B00
:1018F00069F4808191818D939C93428153816481AD
:101900007581F9014283538364837583D801ED9116
:10191000FC910190F081E02DC8010995F8018289C0
:1019200093890E945D13D80154968D919C9155978F
:101930000E945D13F80187898F3F81F09285968B15
:10194000248D933029F4809310032093120306C052
:10195000923021F48093110320931303D8015E96F3
:10196000ED91FC915F97309709F48DCFC8010995EF
:101970008ACF80910103833039F482E08093100391
:1019800081E08093120307C0823029F48093110311
:1019900081E080931303809110038F3F79F160E021
:1019A00083E00E9444096091120367FD03C083E055
:1019B0000E9415098091D7029091D802019759F0A1
:1019C0008091100322EA37E130931F0120931E011A
:1019D00090E00E94480A809110031F928F931F92FB
:1019E00083E08F9387E591E09F938F930E94180582
:1019F0000F900F900F900F900F900F908091110308
:101A00008F3F61F160E082E00E944409609113031E
:101A100067FD03C082E00E9415098091D702909172
:101A2000D802019741F04091110350E06FE977E14E
:101A300080E00E94B40A809111031F928F931F923D
:101A400082E08F9381E491E09F938F930E94180529
:101A50000F900F900F900F900F900F9080917A033E
:101A600090917B03009711F48EE793E08E010F5F56
:101A70001F4F081B190BF8943091600020918000D3
:101A8000909182008FEF86BB1092850010928400A7
:101A900010928000109282004DE088E10FB6F89419
:101AA000A895809360000FBE409360008091600015
:101AB000806480936000A89585E080938100809188
:101AC000600087FFFCCF10928100A8958091600094
:101AD0008861809360003093600078942093800048
:101AE000909382006091840070918500CB01A0E00A
:101AF000B0E0BC01CD012BE0660F771F881F991F56
:101B00002A95D1F720EA36E841E050E00E946821AA
:101B1000C9016AE070E00E944021F62EE72E8EE4B3
:101B200080937C0066E470E080E090E00E94800991
:101B300080917A00806480937A0080917A0086FD9B
:101B4000FCCF20917800309179001F930F93EF9292
:101B5000FF9240E050E064EB7BE281E190E00E9484
:101B600068213F932F938DE691E09F938F930E947E
:101B700018050FB6F894DEBF0FBECDBF0F900F90C3
:101B8000DF91CF911F910F91FF90EF90DF90CF9059
:101B900008958F929F92AF92BF92CF92DF92EF9271
:101BA000FF924B015C010E94BA096B017C010E940B
:101BB000BA09DC01CB018C199D09AE09BF09881552
:101BC0009905AA05BB0530F4A8950E941E020E9443
:101BD0001802EDCFFF90EF90DF90CF90BF90AF90C5
:101BE0009F908F9008953F924F925F926F927F9255
:101BF0008F929F92AF92BF92CF92DF92EF92FF921D
:101C00000F931F93CF93DF932B013C01D42EC22F50
:101C1000302EDE2D80916F0382FD1FC00E94BA0915
:101C20004B015C0180E090E0DC0120916F0322FD1C
:101C3000A5C084159505A605B70508F0A5C0803197
:101C400027E29207A105B10508F48AC053014201B9
:101C5000881A990AAA0ABB0A02C053014201DD2070
:101C600081F1D501C4010197A109B109833F9140D8
:101C7000A105B10528F4C301B2010E94C90D84C0B9
:101C800000E020E243E06FEF80E00E94F907FC01F2
:101C900084818F71806A848383818770806283836B
:101CA00084EF91E0A0E0B0E087839087A187B287BE
:101CB000CF010E94000464EF71E080E090E00E9498
:101CC000C90D0E943E03CF3F79F085017401DF3FCB
:101CD00019F02C2D4D2F02C020E04FEF632D8C2FDB
:101CE0000E942906C82F1CC0DF3FC9F4811491044B
:101CF000A104B10429F0C501B4010E94E80503C0A4
:101D00008FEF0E949505809120018F3F19F0C091BF
:101D1000200101C0CFEF8FEF8093200101C0CEEFF3
:101D200029986EE080E20E942D03DD20B9F000E0EA
:101D300021E243E06FEF80E00E94F907FC0184811B
:101D40008F71806A848383818770806283838782B6
:101D50009086A186B286CF010E9400048C2F15C008
:101D6000A8950E941E020E9418020E94BA09DC0176
:101D7000CB0188199909AA09BB0957CF8415950584
:101D8000A605B70508F462CF8EEFDF91CF911F91C2
:101D90000F91FF90EF90DF90CF90BF90AF909F900A
:101DA0008F907F906F905F904F903F900895AF928B
:101DB000BF92CF92EF92FF920F931F93CF93DF9337
:101DC0000091090310910A03E0910B03F0910C03B9
:101DD000EE0FFF1F5F01A00EB11EC091D702D09180
:101DE000D8022091FC023091FD024091FE025091F8
:101DF000FF02A8EEB3E00E94EF20A801A416B506EA
:101E0000F1F0FA01A191B191AF012D913C9111979F
:101E10002130310599F7C130D10581F716960D9122
:101E20001D912D913C911997061B170B280B390B0F
:101E300016960D931D932D933C931997DFCF009128
:101E4000CF021091D002FF24FA948091D102909198
:101E5000D202880F991F2091CF023091D002820FB9
:101E6000931F08171907B1F0F801C191D1918F01A3
:101E70008BED92E00E940302809125018F3F21F0BB
:101E80009E898913E2CF0EC060E070E0CE010E940F
:101E90005A15DBCF8091D7029091D802019709F0B3
:101EA000C3C031C08D8D882371F08F89833029F4B0
:101EB00080916403813021F506C0823021F4809145
:101EC000640381111DC0E881F9810680F781E02D4E
:101ED000CE010995688D798D8A8D9B8D611571056F
:101EE0008105910511F00E94C708ECA1FDA1309772
:101EF00011F0CE01099560E070E0CE010E945A1504
:101F0000F0922501A2CFF090FC021091FD02D09139
:101F1000FE02C091FF02CF93DF931F93FF928DECDF
:101F200091E09F938F930E941805009110030F90EA
:101F30000F900F900F900F900F900F3F49F4AA242D
:101F4000AA94B12CE0911103EF3F09F042C004C004
:101F5000AA24A394B12CF6CFFFEFAF16B10409F475
:101F600050C0A8EEB3E02F2D312F4D2F5C2F0E94D3
:101F7000EF20CC24CA94EE24EA942A2D4091140335
:101F80000E94F30D082E000C990B97FD19C08130AB
:101F9000910511F483E003C0892B19F482E00E94BB
:101FA0003B172091010330E080912501082E000CA1
:101FB000990B2817390721F41092D8021092D702F2
:101FC0008FEB91E09F938F930E9418050F900F90D5
:101FD0002BC0A8EEB3E02F2D312F4D2F5C2F8FEFAC
:101FE000A816B10429F00E94EF20CE2EE12CC5CF17
:101FF0000E94EF20CC24CA94EE24EA940E2F20E015
:10200000BDCFA8EEB3E02F2D312F4D2F5C2F0E94B6
:10201000EF20CC24CA94EE24EA940FEF2FEF4091E6
:1020200014030E94F30DCCCFDF91CF911F910F913C
:10203000FF90EF90CF90BF90AF9008950F93CF9304
:1020400000E02FE043E06FEF80E00E94F90766E9CF
:1020500071E00E94CD01E9E1F3E083818770806146
:10206000838384818F71806C848381E08783108671
:10207000CF010E9400048FE00E94C60920E046E9DB
:1020800051E061E18FEF0E94250BC091A80126E08D
:1020900043E06FEF80E00E94F9076C2F0E94C101BE
:1020A0000E94000486E00E94C609CF910F910C9413
:1020B0003D0B0F93CF938091A60181FD20C00E941C
:1020C0001E108091A60181608093A601C4E000E00B
:1020D0002AE143E06FEF80E00E94F90762E00E948E
:1020E000C1010E9400048BE10E94C609811102C057
:1020F000C15069F78091A60182608093A601CF91BB
:102100000F910895FC0180819181009711F00C944A
:10211000F61B0895CF93DF93EB01DC019896ED91C8
:10212000FC919997E730F10520F4EC5CFF4F0C949B
:102130008A2160E070E03AC088E00E9469038F70F5
:1021400063EE7FEFB8E08B9F6019710911242EC0F8
:1021500086E00E946903282F30E035952795209569
:102160003095237033274AEF4203B001439F700D2F
:1021700011241CC086E00E94690390E09595879524
:10218000959587958370992769E1689F600D112463
:1021900070E00CC0609172037091730384E07595D8
:1021A00067958A95E1F702C060E07FEFCE01DF918D
:1021B000CF910C946B14CF93DF93EC0102960E94A5
:1021C00078089C0160916403062E000C770B88A5AB
:1021D000882331F091E0672B09F090E0692F70E0DF
:1021E000C901DF91CF910C946B14CF93DF93EC0175
:1021F00002960E947808FC0115861486EA89FB89FC
:1022000082E090E091838083DF91CF910895EF92F7
:10221000FF920F931F93CF93DF937C01EB016E81AD
:102220000E94F7168C01892BA9F08C81877082306F
:1022300089F48D81823071F4F70182850E94EC0867
:10224000BC01C801DF91CF911F910F91FF90EF90DA
:102250000C946B14DF91CF911F910F91FF90EF9031
:102260000895FF920F931F93CF93DF938C01EB019F
:10227000FC018285082E000C990B22A512162CF465
:10228000209719F4822F220F990BF80127A530A966
:102290001216130614F4C1E0D0E0F80121A922239C
:1022A00031F021E0CD2B09F020E0C22FD0E0F82E54
:1022B0006C2F0E941509F80167A570A9161617065C
:1022C00094F4072E000C880B990B0E94C70861E05C
:1022D000CD2B09F060E08F2DDF91CF911F910F91F1
:1022E000FF900C941509DF91CF911F910F91FF90F2
:1022F00008958F929F92AF92BF92CF92DF92EF920A
:10230000FF920F931F93CF93DF93D6E0E12CFF242E
:10231000FA9470E0C72E70E0D72E87E10E9469031F
:1023200080FD81C1D15009F47EC121E041E060E02F
:1023300070E080E60E94FC02C82F813220F082EE1D
:102340000E946F03C0E021E04C2F6AE373E081E656
:102350000E94FC0260E487E20E942D0330913D035D
:10236000832F8695869586958A3108F089E132FD1E
:1023700003C097E0980F01C090E29C13CECF932F3B
:102380009370923051F620913E03022F0770C09156
:102390003F0310913B0390913A0340913C035091CD
:1023A00070035068509370035091A701451333C0D8
:1023B00090E03770BC0153E0660F771F5A95E1F744
:1023C000362B30933D03FC01E65CFC4F178223FF64
:1023D00015C081E2EAE3F3E0A9E1B3E001900D92D8
:1023E0008A95E1F7277F206120931D0340931A030C
:1023F00010931B0389E193E00E94000490913E0337
:1024000094FD12C0033081F480913F0321EF280F27
:102410002330B0F582CF4F3F09F07FCF033049F032
:102420008091A801981379CF8AE393E00E946C0110
:1024300074CF80916F0382FF03C0C73009F46DCF62
:10244000C83009F46ACFC43109F067CF8091A80180
:10245000981363CF0E94BA097370882799270E9446
:102460008009C091A80100E025E143E06FEF812FD2
:102470000E94F9076C2F0E94C1010E9475034DCF85
:10248000C43009F44ACFC830C9F4C0916F03C0FF0B
:1024900044CF0E94AC198F3F09F43FCF8F5F8F3F2D
:1024A00009F43BCF9091A901891708F036CFC1FDFF
:1024B00034CF8093A9011093A8012FCFC83149F4DC
:1024C00000E029E143E06FEF812F0E94F90761E00E
:1024D000D2CFC93161F480916F0383FF1ECF877F14
:1024E00080936F030E94AC198093710316CF2091E3
:1024F0003B0321117BC08D3059F498E088E10FB681
:10250000F894A895809360000FBE90936000FFCF71
:102510008B3169F40E94AC1991E0811101C090E007
:102520008091A60190FB80F98093A601F6CE8630BB
:1025300099F49091410381E0992319F09D3409F0B9
:1025400080E08093A50141E050E063E071E085EA1E
:1025500091E00E94CD20E1CE833119F40E941E103B
:10256000DCCE8231E1F40E9429024B015C0100E0E3
:1025700026E143E06FEF80E00E94F907FC018481CF
:102580008F71806A8483838187708062838387826E
:102590009086A186B286CF010E940004BECE813013
:1025A000F9F4C114D10409F4B8CE929596959770B8
:1025B000953049F460914103709142038091430347
:1025C000909144030AC0911105C081E493E00E94F8
:1025D0009D1C03C060E070E0CB010E9400009DCE16
:1025E0008A3009F49ACE8C3121F497CE8A3109F4DD
:1025F00094CECE3109F491CECD3109F015CF00E063
:102600002FE143E06FEF80E00E94F907FC01848135
:102610008F71806484838381877080618383F08677
:10262000E782CF012ACFDF91CF911F910F91FF90C9
:10263000EF90DF90CF90BF90AF909F908F900895D4
:10264000CF92DF92EF92FF92CF93DF93FC01208134
:1026500031812330310541F12115310529F1223035
:10266000310501F14285442301F121303105E1F4C6
:10267000EC01C680D780E084F1840E94BA09C61AB2
:10268000D70AE80AF90A2A813B814C815D81A8EECC
:10269000B3E00E94EF2041E0C616D706E806F9062F
:1026A00020F402C041E001C040E0842FDF91CF91CF
:1026B000FF90EF90DF90CF900895CF92DF92EF924E
:1026C000FF92CF93DF93EC010E94BA096B017C016A
:1026D0002A813B814C815D81A8EEB3E00E94EF200E
:1026E000C60ED71EE81EF91ECE82DF82E886F98666
:1026F00081E08A87DF91CF91FF90EF90DF90CF90BC
:1027000008950F931F93CF93DF93EC018B018CA55A
:102710008823E1F08AA99BA96115710519F4FC01D0
:1027200012861FC02CE3269FA001279F500D112465
:10273000052E000C660B770BFC01428353836483E8
:1027400075830E945D1301E010E00BC061307105DC
:1027500041F48AA99BA9FC012081318121303105F6
:1027600001F1E881F9810084F185E02DB801CE0105
:10277000099519A708A7CE0102960E947808B8010A
:102780000E946B146DA57EA5161617066CF4072E15
:10279000000C880B990BDF91CF911F910F910C9436
:1027A000C7080E945D13DDCFDF91CF911F910F917C
:1027B000089561E070E08091990290919A02892BCE
:1027C00011F060E070E081E792E00C948113EF92E9
:1027D000FF920F931F93CF93DF93EC018B01FB01CB
:1027E00066810E94F7167C01892BC1F1F801848172
:1027F000982F9770913021F49BA591111CC005C0B2
:102800009230C9F49BA59923B1F082958695877083
:10281000823021F4F8018781908509C0811105C0BB
:10282000C80107960E947F1C02C080E090E0BC01B6
:10283000CE010E948113F80184818770823071F487
:102840008BA581110BC068A579A5C701DF91CF9138
:102850001F910F91FF90EF900C946B14DF91CF912B
:102860001F910F91FF90EF900895CF93DF93EC01AC
:102870008AA99BA90E942013882341F060E070E0A0
:10288000CE010E948113EAA9FBA91286DF91CF91A4
:102890000895CF93DF93EC0102960E947808FC0123
:1028A0001586148661E08A850E9444098AA5181657
:1028B0001CF461E00E944409EA89FB8982E090E00F
:1028C0009183808360E070E0CE01DF91CF910C9422
:1028D000811308950895CF92DF92EF92FF920F93A4
:1028E0001F93CF93DF93EC01072E000C880B990BFD
:1028F0000E94A01F6B017C019B01AC010E94A522DC
:102900008111CFC00C851D850115110561F0A7014E
:1029100096016C897D898E899F890E9491216C8B9B
:102920007D8B8E8B9F8B69857A856F5F7F4F7A87D2
:1029300069870130110589F480E090E00E949E1FB4
:102940009B01AC016C897D898E899F890E94FD2144
:102950006E877F87888B998B12C00230110549F4EE
:102960008C899D89AE89BF898E879F87A88BB98BFB
:1029700006C0012B21F4CE86DF86E88AF98A8A8197
:102980009B81892B01F56E857F85888999890E94B5
:102990006F227F936F938E811F928F938C811F92F2
:1029A0008F9388858F938F818F938EE392E09F938F
:1029B0008F930E9418058DB79EB70A960FB6F894AC
:1029C0009EBF0FBE8DBF8A819B81019799F5CE84F2
:1029D000DF84E888F98820E030E048EC52E4C70161
:1029E000B6010E94FF1F0E946F22CB0164E670E0D7
:1029F0000E9454219F938F93C701B6010E946F22BA
:102A00007F936F938E811F928F938C811F928F93F0
:102A100088858F938F818F938BE192E09F938F9323
:102A20000E9418058DB79EB70C960FB6F8949EBFFE
:102A30000FBE8DBF8A819B81029799F5CE84DF847A
:102A4000E888F98820E030E44CE156E4C701B6019B
:102A50000E94FF1F0E946F22CB0160E177E20E947B
:102A600054219F938F93C701B6010E946F227F93D9
:102A70006F938E811F928F938C811F928F93888585
:102A80008F938F818F9388EF91E09F938F930E9414
:102A900018058DB79EB70C960FB6F8949EBF0FBE63
:102AA0008DBFDF91CF911F910F91FF90EF90DF903D
:102AB000CF9008953F924F925F926F927F928F9244
:102AC0009F92AF92BF92CF92DF92EF92FF920F93BD
:102AD0001F93CF93DF938C017B01DC0154968D9182
:102AE0009C9155970E942013811105C0F80181899E
:102AF000882309F461C1D8019096ED91FC919197DA
:102B0000309711F0C8010995F801C281D381D8012D
:102B100014968D919C911597880F991F12962D915F
:102B20003C911397820F931FC817D907B9F1A99049
:102B3000B990E114F10439F0F7019681D5011496AA
:102B40008C919813E4CFC12CD12CF8018385948506
:102B5000C816D906E0F60190F081E02DE114F104E9
:102B600029F00480F581E02DB70104C00280F381D3
:102B7000E02DB501C8010995D8011D966D917D9193
:102B80008D919C915097611571058105910511F00A
:102B90000E94C708BFEFCB1ADB0AD7CFD8019296A5
:102BA000ED91FC919397309711F0C8010995F801C8
:102BB000848995890E942013882339F0D80154967E
:102BC0008D919C9155970E945D13F801828993899C
:102BD0000E942013811106C0D80151968C91882340
:102BE00009F4EFC0F801C280D38036E9632E31E0EA
:102BF000732ED80114968D919C911597880F991F6B
:102C000012962D913C911397820F931FC816D906E7
:102C100009F4BEC0F601C191D1916F01E114F10434
:102C200039F0D70116969C918C819813E2CF07C09A
:102C3000888D811104C089859A85892BD1F28A817A
:102C40009B81892B51F56E857F85888999890E94A2
:102C50006F224B015C014E805C808BED92E00E9404
:102C600003028091DF028F7180688093DF02809180
:102C7000DE02877080628093DE02092C000CAA08B5
:102C8000BB088092E2029092E302A092E402B0922A
:102C9000E502642D852D0E9498088A819B81019709
:102CA00021F53B848E849F84A888B9884E805C80FF
:102CB0008BED92E00E9403028091DE0287708862B1
:102CC0008093DE028091DF02806E8093DF0280922B
:102CD000E2029092E302A092E402B092E502309206
:102CE000E602642D852D0E9498088A819B810297B7
:102CF00021F53B848E849F84A888B9884E805C80AF
:102D00008BED92E00E9403028091DE028770886260
:102D10008093DE028091DF02806E8093DF028092DA
:102D2000E2029092E302A092E402B092E5023092B5
:102D3000E602642D852D0E9498088A819B81039765
:102D400089F4AA88BB888E809C808BED92E00E94DB
:102D50000302B5018BED92E00E94CD01682D892D13
:102D60000E9498088A819B81039769F08C859D85D4
:102D7000892B59F01C8A1D8A1E8A1F8A1E861F866F
:102D8000188A198A02C07B8A6A8A1A86198631CF04
:102D9000F801828993890E942013882339F0D80191
:102DA00052968D919C9153970E945D13F8018189F1
:102DB000882359F0118A09C0E114F10409F09BCE6F
:102DC00004CFE114F10409F00DCFDF91CF911F91F1
:102DD0000F91FF90EF90DF90CF90BF90AF909F90BA
:102DE0008F907F906F905F904F903F900895DC019F
:102DF0001296ED91FC91139714968D919C911597D5
:102E0000880F991F8E0F9F1F8E179F0749F0A19162
:102E1000B19114962C9114976213F6CFCD010895B9
:102E200080E090E008950F931F93CF93DF93EC0120
:102E30008B01FB0166810E94F7160097B9F0F8013B
:102E400024812770223091F4FC013681F80125811C
:102E500032130CC0E881F9810280F381E02DBC01BE
:102E6000CE01DF91CF911F910F910994DF91CF9106
:102E70001F910F910895CF92DF92EF92FF920F93DF
:102E80001F93CF93C82FC0907603D0907703E09024
:102E90007803F0907903C114D104E104F10441F105
:102EA0000E94BA090091150310911603209117038F
:102EB00030911803DC01CB01801B910BA20BB30BEB
:102EC0008C159D05AE05BF0598F4809125018C13E6
:102ED0000FC00E94BA0900911503109116032091AA
:102EE0001703309118030617170728073907F8F05A
:102EF000C09325018C2F0E94EC0880936403282F37
:102F0000082E000C330B3F938F938C2F0C2E000C4C
:102F1000990B9F93CF9381EE91E09F938F930E94A3
:102F200018050F900F900F900F900F900F90CF916A
:102F30001F910F91FF90EF90DF90CF90089582E066
:102F40000C943B1783E00C943B177F928F929F92D7
:102F5000AF92BF92CF92DF92EF92FF920F931F93A7
:102F6000CF93DF93CDB7DEB7A1970FB6F894DEBF4E
:102F70000FBECDBFEBEAF1E01382128288EE93E040
:102F8000A0E0B0E084839583A683B78380E391E0DB
:102F90009183808385EC90E09587848784EC90E032
:102FA0009787868780EC90E0918B808B81EC90E016
:102FB000938B828B82EC90E0958B848B86EC90E0F7
:102FC000978B868B118E128E138E148E8AE393E06C
:102FD0000E94030289E193E00E9403020E94BA0961
:102FE000609315037093160380931703909318034F
:102FF0000FEC12E0D80111961C921E9213961C92AF
:103000001E92129715961C921E921497FF24F39409
:103010001696FC9216971796FC92179719961C9283
:103020001E9218971A961C921A971B96FC928BED7B
:1030300092E00E940302F80115A616A617A610AA90
:10304000F1AAEE24EA94E2AA14AA13AA88E592E06F
:10305000A0E0B0E085AB96ABA7ABB0AFE1AE13AEEE
:1030600012AE15AE14AE17AE16AEF0920F03E0928C
:103070001003E0921103E0921203E0921303F09226
:103080001403CE0101960E94030281E2FE013196F3
:10309000ABEDB2E001900D928A95E1F70E94120823
:1030A00081E191E09F938F930E94180586EF90E055
:1030B0009F938F930E94180582ED90E09F938F93CA
:1030C0000E9418056FEF85EA92E00E94FE1A05EA59
:1030D00012E08CE591E0D80111969C938E9399961D
:1030E0001C921E92989780E791E019969C938E937C
:1030F000189761E070E087EA92E00E94E51989E1A3
:1031000090E00E945E1BFC01D80118968D919C9165
:10311000199712861186CC24C394D12CD586C486E7
:1031200016861786108A118A36E9A32E31E0B32E4F
:10313000B38AA28A148A158A168A178A108E118376
:103140000083138212822AEC248321E2258325E264
:10315000268390878783BF0187EA92E00E941B1A2B
:10316000D8015296ED91FC915397D182C08280E1B3
:103170009EE0A0E0B0E082839383A483B58368E0FF
:1031800081E792E00E94FE1A01E712E08EE491E0EE
:10319000F8019183808311A610A6E2A613A614A6B7
:1031A00016A615A610AA17A611AA8BE090E00E94F9
:1031B0005E1B4C01DC0111961C921E92FC011282D6
:1031C00013821482158216961D921D921D921C92D6
:1031D00019971A961C92BC0189E093E00E941B1A71
:1031E000F80193AA82AA87E791E09187808761E03E
:1031F00070E083E792E00E94E5190E946508982E2E
:1032000089E190E00E945E1BFC01D80118968D9127
:103210009C91199747E1742E758250E3E52EE68262
:1032200012861186D586C48616861786108A118A5C
:10323000B38AA28A148A158A168A178A108E118375
:10324000008313821282948290878783BF0183E771
:1032500092E00E941B1A8EE491E0F8019183808332
:1032600061E8862E61E0962E9186808683E792E063
:103270000E94780823E0DC0115962C9383E792E006
:103280000E94780822E0FC01268383E792E00E94F6
:103290007808DC0118969C928E92179763E088E478
:1032A00092E00E94FE1A08E412E082E491E0F80144
:1032B0009183808310A687E891E09187808761E001
:1032C00070E08AE492E00E94E5190E946508982E59
:1032D00089E190E00E945E1BFC01D80118968D9157
:1032E0009C9119977582E68212861186D586C486CE
:1032F00016861786108A118AB38AA28A148A158ABA
:10330000168A178A108E1183008313821282948288
:1033100090878783BF018AE492E00E941B1AF8011C
:10332000F48EF78A0F900F900F900F900F900F90E0
:10333000A1960FB6F894DEBF0FBECDBFDF91CF913F
:103340001F910F91FF90EF90DF90CF90BF90AF90C3
:103350009F908F907F90089580913E0382958695EF
:103360008770813019F4809141030895811105C05F
:1033700081E493E00E947F1C089580E00895CF933C
:10338000DF93C8E6D1E0D0934902C09348028AE4B3
:1033900092E00E948210D0937202C093710283E780
:1033A00092E00E948210D093A602C093A50287EA01
:1033B00092E00E94821089E093E00E9482108FECDC
:1033C00092E0DF91CF910C9482100F931F93CF93D3
:1033D000DF93EC017D836C8361388FE3780720F401
:1033E000CB01880F991F02C08FEF9FEF0E945E1BD9
:1033F0008C016A817B81FC0120E030E08881998129
:10340000261737076CF4A901440F551FDC01A40FE0
:10341000B51F8D919C91819391932F5F3F4FEECF7C
:10342000009711F00E94F61B08831983DF91CF915A
:103430001F910F910895CF92DF92EF92FF920F9319
:103440001F93CF93DF93EC018B01EA80FB808C818B
:103450009D81E816F90659F5C70101969D838C8375
:1034600081382FE3920718F4880F991F02C08FEF5D
:103470009FEF0E945E1B6C01FC0120E030E0888120
:1034800099812E153F056CF4A901440F551FDC01ED
:10349000A40FB51F8D919C91819391932F5F3F4F06
:1034A000EECF009711F00E94F61BC882D9828A8164
:1034B0009B819C01220F331FE881F981E20FF31FEA
:1034C0001183008301969B838A83DF91CF911F91A3
:1034D0000F91FF90EF90DF90CF900895789484B58E
:1034E000826084BD84B5816084BD85B5826085BD00
:1034F00085B5816085BD80916E00816080936E008E
:10350000109281008091810082608093810080917F
:103510008100816080938100809180008160809330
:1035200080008091B10084608093B1008091B000F0
:1035300081608093B00080917A00846080937A00EB
:1035400080917A00826080937A0080917A008E7FE9
:1035500080937A0080917A00806880937A0010923C
:10356000C100A89580E090E0892B11F00E94000036
:103570000E9412088091A6018D7F8093A6010E946F
:10358000CF0B41E050E063E071E085EA91E00E94FA
:10359000BD206FEF81E090E00E94DD2080917003FC
:1035A0008F7880937003109266031092650381E216
:1035B00091E00E943C0289E590E19093750380932D
:1035C00074030E94BA090E94BA090E941E020E9456
:1035D0001802A89580916F0382FFF5CF0E94110C0D
:1035E000A895A8950E941E0280916F0384FD0E94F9
:1035F00079110E94D70E0E94ED07F3CF0F931F930E
:10360000CF93DF93EC0188E691E0998388831B8256
:103610001A821D821C821F821E8286E991E0998790
:10362000888781E090E09C878B871D861E861F8699
:10363000188A91E0998B8FEF8E8B8F8B188E198E55
:103640001A8E1B8E8C8F9D8F6A878BE090E00E9474
:103650005E1B8C01FC011182108212821382148283
:10366000158216821782108611861286BC0189E0A7
:1036700093E00E941B1A1B8B0A8B8BE090E00E9448
:103680005E1B8C01FC011182108212821382148253
:10369000158216821782108611861286BC0189E077
:1036A00093E00E941B1A1D8B0C8BBE018FEC92E0E5
:1036B000DF91CF911F910F910C941B1A0F931F93C1
:1036C000CF93DF938230910510F482E090E0E09197
:1036D0007C03F0917D0320E030E0A0E0B0E0309783
:1036E00019F1408151810281138148175907C8F0AF
:1036F0008417950769F4109731F012960C9312977E
:1037000013961C9327C000937C0310937D0322C063
:103710002115310519F04217530718F49A01BD011C
:10372000EF01DF01F801DBCF21153105F9F0281B8E
:10373000390B2430310580F48A819B816115710534
:1037400021F0FB019383828304C090937D038093D7
:103750007C03FE01329644C0FE01E20FF31F819309
:10376000919322503109398328833AC020917A03FA
:1037700030917B03232B41F42091280130912901C2
:1037800030937B0320937A03209126013091270107
:103790002115310541F42DB73EB740912A015091D2
:1037A0002B01241B350BE0917A03F0917B03E21788
:1037B000F307A0F42E1B3F0B2817390778F0AC0154
:1037C0004E5F5F4F2417350748F04E0F5F1F509331
:1037D0007B0340937A038193919302C0E0E0F0E091
:1037E000CF01DF91CF911F910F910895CF93DF9378
:1037F000009709F481C0FC01329713821282A091D4
:103800007C03B0917D03109781F420813181820F78
:10381000931F20917A0330917B032817390751F5C4
:10382000F0937B03E0937A0367C0ED0120E030E082
:10383000CE17DF0740F44A815B819E014115510597
:10384000F1F0EA01F5CFD383C28340815181840F27
:10385000951FC817D90759F488819981840F951F3E
:103860000296918380838A819B8193838283211531
:10387000310529F4F0937D03E0937C033DC0E90119
:10388000FB83EA8349915991C40FD51FEC17FD07BB
:1038900061F480819181840F951F0296E9019983DB
:1038A0008883828193819B838A83E0E0F0E0129693
:1038B0008D919C911397009719F0FD01DC01F7CFD2
:1038C0008D919C9111979D012E5F3F4F820F931F09
:1038D00020917A0330917B032817390769F43097D8
:1038E00029F410927D0310927C0302C0138212828D
:1038F000B0937B03A0937A03DF91CF910895FC01ED
:1039000088279927E89421912032E9F3293010F093
:103910002E30C8F32B3241F02D3239F4689404C0B4
:103920000E94D91C820F911D219120532A30C0F38F
:103930001EF4909581959F4F08951F93FC01992740
:103940008827BC01E89411911032E9F3193010F086
:103950001E30C8F31B3251F01D3249F4689406C082
:103960000E94C41C610F711D811D911D1191105386
:103970001A30B0F33EF490958095709561957F4F25
:103980008F4F9F4F1F910895592F482F372F262F64
:10399000660F771F881F991F660F771F881F991F53
:1039A000620F731F841F951F660F771F881F991F53
:1039B00008957AE0979F902D879F802D910D112477
:1039C0000895AEE0B0E0E7EEFCE10C9408218C0134
:1039D000FA018EE08C831A83098377FF02C060E0CE
:1039E00070E8CB0101979E838D83A901BF01CE01B1
:1039F00001960E940D1D4D815E8157FD0AC02F81E9
:103A00003885421753070CF49A01F801E20FF31FAF
:103A100010822E96E4E00C942421ABE0B0E0E3E1C8
:103A2000FDE10C94FA206C017B018A01FC011782F4
:103A30001682838181FFCCC1CE0101963C01F60143
:103A40009381F70193FD859193FF81917F018823F5
:103A500009F4BAC1853239F493FD859193FF8191C0
:103A60007F01853229F4B60190E00E94041FE7CF60
:103A7000912C212C312CFFE1F315D8F08B3279F009
:103A800038F4803279F08332A1F4232D20611DC0F7
:103A90008D3261F0803369F4232D216016C0832DAF
:103AA0008260382EE32DE4603E2E2AC0F32DF860AC
:103AB0001DC037FC2DC020ED280F2A3040F08E327B
:103AC000B9F436FC81C1232D2064322E19C036FE94
:103AD00006C08AE0989E200D1124922E11C0EAE0C3
:103AE0002E9E200D1124222EF32DF0623F2E08C0B1
:103AF0008C3621F4832D8068382E02C0883641F43C
:103B0000F70193FD859193FF81917F018111B3CFDF
:103B1000982F9F7D9554933028F40C5F1F4F9FE39F
:103B200099830DC0833631F0833771F0833509F006
:103B300059C021C0F801808189830E5F1F4F8824FE
:103B40008394912C530113C02801F2E04F0E511CB5
:103B5000F801A080B18036FE03C0692D70E002C07C
:103B60006FEF7FEFC5010E94F91E4C018201F32D1A
:103B7000FF773F2E16C0280122E0420E511CF801AB
:103B8000A080B18036FE03C0692D70E002C06FEFE7
:103B90007FEFC5010E94EE1E4C01F32DF0683F2E11
:103BA000820133FC1BC0822D90E088169906B0F488
:103BB000B60180E290E00E94041F2A94F4CFF50140
:103BC00037FC859137FE81915F01B60190E00E943C
:103BD000041F21102A9421E0821A91088114910473
:103BE00071F7E8C0843611F0893641F5F80137FEE7
:103BF00007C060817181828193810C5F1F4F08C073
:103C000060817181072E000C880B990B0E5F1F4F8E
:103C1000F32DFF763F2E97FF09C090958095709504
:103C200061957F4F8F4F9F4FF0683F2E2AE030E025
:103C3000A3010E94401F882E861845C0853731F4A5
:103C4000232D2F7EB22E2AE030E025C0932D997FC0
:103C5000B92E8F36C1F018F4883579F0B5C08037A9
:103C600019F0883721F0B0C0E92FE061BE2EB4FE14
:103C70000DC0FB2DF460BF2E09C034FE0AC0292FF1
:103C80002660B22E06C028E030E005C020E130E01A
:103C900002C020E132E0F801B7FE07C06081718107
:103CA000828193810C5F1F4F06C06081718180E02B
:103CB00090E00E5F1F4FA3010E94401F882E8618C0
:103CC000FB2DFF773F2E36FE0DC0232D2E7FA22E1B
:103CD000891458F434FE0BC032FC09C0832D8E7E4B
:103CE000A82E05C0B82CA32C03C0B82C01C0B92C39
:103CF000A4FE0FC0FE01E80DF11D8081803321F488
:103D00009A2D997EA92E09C0A2FE06C0B394B39441
:103D100004C08A2D867809F0B394A3FC11C0A0FEDC
:103D200006C0B21488F4280C922C9B180EC0B21452
:103D300060F4B60180E290E00E94041FB394F7CFD4
:103D4000B21418F42B1802C0982C212CA4FE10C019
:103D5000B60180E390E00E94041FA2FE17C0A1FC00
:103D600003C088E790E002C088E590E0B6010CC08F
:103D70008A2D867859F0A1FE02C08BE201C080E254
:103D8000A7FC8DE2B60190E00E94041F891438F46C
:103D9000B60180E390E00E94041F9A94F7CF8A94C2
:103DA000F301E80DF11D8081B60190E00E94041F2F
:103DB0008110F5CF222009F442CEB60180E290E0D6
:103DC0000E94041F2A94F6CFF6018681978102C0D3
:103DD0008FEF9FEF2B96E2E10C941621FC010590EA
:103DE000615070400110D8F7809590958E0F9F1FFD
:103DF0000895FC016150704001900110D8F7809542
:103E000090958E0F9F1F08950F931F93CF93DF936D
:103E1000FB01238121FD03C08FEF9FEF2CC022FF08
:103E200016C046815781248135814217530744F4D7
:103E3000A081B1819D012F5F3F4F318320838C93FF
:103E4000268137812F5F3F4F3783268314C08B0134
:103E5000EC01FB010084F185E02D0995892BE1F649
:103E6000D80116968D919C911797019617969C9361
:103E70008E931697CE01DF91CF911F910F910895E8
:103E8000FA01AA27283051F1203181F1E8946F938B
:103E90006E7F6E5F7F4F8F4F9F4FAF4FB1E03ED031
:103EA000B4E03CD0670F781F891F9A1FA11D680FCF
:103EB000791F8A1F911DA11D6A0F711D811D911D02
:103EC000A11D20D009F468943F912AE0269F112477
:103ED0003019305D3193DEF6CF010895462F4770DB
:103EE000405D4193B3E00FD0C9F7F6CF462F4F7036
:103EF000405D4A3318F0495D31FD4052419302D094
:103F0000A9F7EACFB4E0A695979587957795679539
:103F1000BA95C9F700976105710508959B01AC0139
:103F20000A2E06945795479537952795BA95C9F760
:103F3000620F731F841F951FA01D0895E89409C088
:103F400097FB3EF490958095709561957F4F8F4FCC
:103F50009F4F9923A9F0F92F96E9BB279395F695E2
:103F6000879577956795B795F111F8CFFAF4BB0F60
:103F700011F460FF1BC06F5F7F4F8F4F9F4F16C0C4
:103F8000882311F096E911C0772321F09EE8872F4E
:103F9000762F05C0662371F096E8862F70E060E00A
:103FA0002AF09A95660F771F881FDAF7880F969583
:103FB000879597F90895990F0008550FAA0BE0E827
:103FC000FEEF16161706E807F907C0F012161306DB
:103FD000E407F50798F0621B730B840B950B39F41B
:103FE0000A2661F0232B242B252B21F408950A2681
:103FF00009F4A140A6958FEF811D811D08950E94AF
:1040000012200C9483200E94752038F00E947C209E
:1040100020F0952311F00C946C200C947220112444
:104020000C94B7200E94942070F3959FC1F3950FD4
:1040300050E0551F629FF001729FBB27F00DB11D2C
:10404000639FAA27F00DB11DAA1F649F6627B00DBC
:10405000A11D661F829F2227B00DA11D621F739FA5
:10406000B00DA11D621F839FA00D611D221F749FB3
:104070003327A00D611D231F849F600D211D822FFA
:10408000762F6A2F11249F5750409AF0F1F0882321
:104090004AF0EE0FFF1FBB1F661F771F881F91504E
:1040A0005040A9F79E3F510580F00C946C200C9471
:1040B000B7205F3FE4F3983ED4F3869577956795F4
:1040C000B795F795E7959F5FC1F7FE2B880F911D78
:1040D0009695879597F9089597F99F6780E870E01E
:1040E00060E008959FEF80EC089500240A9416166E
:1040F000170618060906089500240A9412161306D6
:10410000140605060895092E0394000C11F4882363
:1041100052F0BB0F40F4BF2B11F460FF04C06F5F7F
:104120007F4F8F4F9F4F089557FD9058440F551F55
:1041300059F05F3F71F04795880F97FB991F61F029
:104140009F3F79F087950895121613061406551FA0
:10415000F2CF4695F1DF08C0161617061806991F0C
:10416000F1CF86957105610508940895E894BB2701
:1041700066277727CB0197F90895DC01CB01FC0175
:10418000F999FECF06C0F2BDE1BDF89A319600B4B0
:104190000D9241505040B8F70895DC01A40FB51FAF
:1041A0004150504048F0CB01840F951F2E910E9442
:1041B000DE2041505040D0F70895262FF999FECFC8
:1041C00092BD81BDF89A019700B4021639F01FBA6A
:1041D00020BD0FB6F894FA9AF99A0FBE08950E947E
:1041E0003121A59F900DB49F900DA49F800D911D2E
:1041F000112408952F923F924F925F926F927F9277
:104200008F929F92AF92BF92CF92DF92EF92FF92E6
:104210000F931F93CF93DF93CDB7DEB7CA1BDB0B92
:104220000FB6F894DEBF0FBECDBF09942A88398837
:1042300048885F846E847D848C849B84AA84B9843E
:10424000C884DF80EE80FD800C811B81AA81B9814A
:10425000CE0FD11D0FB6F894DEBF0FBECDBFED015E
:104260000895A29FB001B39FC001A39F700D811D4F
:104270001124911DB29F700D811D1124911D08956F
:10428000AA1BBB1B51E107C0AA1FBB1FA617B7077C
:1042900010F0A61BB70B881F991F5A95A9F7809598
:1042A0009095BC01CD01089597FB072E16F400945C
:1042B00007D077FD09D00E94402107FC05D03EF4CD
:1042C000909581959F4F0895709561957F4F0895C2
:1042D000A1E21A2EAA1BBB1BFD010DC0AA1FBB1F0A
:1042E000EE1FFF1FA217B307E407F50720F0A21B7C
:1042F000B30BE40BF50B661F771F881F991F1A94E9
:1043000069F760957095809590959B01AC01BD0112
:10431000CF010895EE0FFF1F0590F491E02D099451
:104320005058BB27AA270E94A8210C9483200E94E2
:10433000752038F00E947C2020F039F49F3F19F45A
:1043400026F40C9472200EF4E095E7FB0C946C209C
:10435000E92F0E94942058F3BA1762077307840765
:10436000950720F079F4A6F50C94B6200EF4E095AC
:104370000B2EBA2FA02D0B01B90190010C01CA011F
:10438000A0011124FF27591B99F0593F50F4503ECA
:1043900068F11A16F040A22F232F342F4427585FBC
:1043A000F3CF469537952795A795F0405395C9F7D4
:1043B0007EF41F16BA0B620B730B840BBAF091508C
:1043C000A1F0FF0FBB1F661F771F881FC2F70EC02B
:1043D000BA0F621F731F841F48F4879577956795FE
:1043E000B795F7959E3F08F0B0CF9395880F08F0EA
:1043F0009927EE0F9795879508950E9411220C94A6
:1044000083200E947C2058F00E94752040F029F4FF
:104410005F3F29F00C946C2051110C94B7200C9440
:1044200072200E94942068F39923B1F3552391F3ED
:10443000951B550BBB27AA2762177307840738F013
:104440009F5F5F4F220F331F441FAA1FA9F335D070
:104450000E2E3AF0E0E832D091505040E695001C24
:10446000CAF72BD0FE2F29D0660F771F881FBB1FDE
:10447000261737074807AB07B0E809F0BB0B802DBC
:10448000BF01FF2793585F4F3AF09E3F510578F0E8
:104490000C946C200C94B7205F3FE4F3983ED4F367
:1044A000869577956795B795F7959F5FC9F7880FBC
:1044B000911D9695879597F90895E1E0660F771F0E
:1044C000881FBB1F621773078407BA0720F0621B9F
:1044D000730B840BBA0BEE1F88F7E09508950E94CA
:1044E00076226894B1110C94B72008950E949C2004
:1044F00088F09F5798F0B92F9927B751B0F0E1F0A5
:10450000660F771F881F991F1AF0BA95C9F714C054
:10451000B13091F00E94B620B1E008950C94B6201D
:10452000672F782F8827B85F39F0B93FCCF386958D
:1045300077956795B395D9F73EF4909580957095EA
:1045400061957F4F8F4F9F4F08950E94DB1F880B0F
:10455000990B089581E090E0F8940C94BE22FB0141
:10456000DC014150504048F001900D920020C9F705
:1045700001C01D9241505040E0F7089511E0CFE294
:10458000D1E004C0FE010E948A212196C033D107E8
:06459000C9F7F894FFCF0B
:10459600FFFF00FCE1A8A8FF430368021D04C00258
:1045A600070492025A0188023204DA02E606E60697
:1045B600FF8B014B04FF00007E038000000000001B
:1045C6007E07E7061507CB074607240738070000CE
:1045D6000000F5106A140711DB10000000004914F2
:1045E6003514E713691431110000000069148A10AC
:1045F600131769140000000069146A14131769146C
:104606005349474E414C004449474954414C5F4F3A
:104616000052454C415900494E544552525550544A
:1046260000322E332E30004D7952656C616973006D
:04463600312E3100F0
:00000001FF
